S01100003132635F736C6176652E73726563D3
S11300000C942A000C9447000C9447000C9447006D
S11300100C9447000C9447000C9447000C94470040
S11300200C9447000C9447000C9447000C94470030
S11300300C9447000C9447000C9447000C94470020
S11300400C9447000C9447000C9447000C94470010
S11300500C94470011241FBECFE5D8E0DEBFCDBF0E
S113006010E0A0E6B0E0EAEFF9E002C005900D92DE
S1130070A036B107D9F710E0A0E6B0E001C01D92A8
S1130080A036B107E1F70E9449000C94FB040C94DC
S1130090000080EE0E94D2030E9426040E94D40332
S11300A00E947204FBCF843409F471C0853448F48F
S11300B0823499F1833408F04DC0813409F083C04F
S11300C00FC0823651F1833620F4813609F07BC0AB
S11300D007C0833609F43EC0843609F074C057C0A3
S11300E0413069F42AB381E090E0AC0102C0440FCE
S11300F0551F6A95E2F7BA01622B6ABB08952AB3C9
S113010081E090E0AC0102C0440F551F6A95E2F70C
S1130110BA01609562236ABB0895413069F427B33C
S113012081E090E0AC0102C0440F551F6A95E2F7EC
S1130130BA01622B67BB089527B381E090E0AC015C
S113014002C0440F551F6A95E2F7BA016095622315
S113015067BB0895413069F424B381E090E0AC01B9
S113016002C0440F551F6A95E2F7BA01622B64BBC3
S1130170089524B381E090E0AC0102C0440F551F00
S11301806A95E2F7BA016095622364BB0895413031
S113019069F421B381E090E0AC0102C0440F551F23
S11301A06A95E2F7BA01622B61BB089521B381E03D
S11301B090E0AC0102C0440F551F6A95E2F7BA0102
S11301C06095622361BB0895843409F471C0853459
S11301D048F4823499F1833408F04DC0813409F035
S11301E083C00FC0823651F1833620F4813609F082
S11301F07BC007C0833609F43EC0843609F074C05E
S113020057C0413069F42BB381E090E0AC0102C0E7
S1130210440F551F6A95E2F7BA01622B6BBB089530
S11302202BB381E090E0AC0102C0440F551F6A95E6
S1130230E2F7BA01609562236BBB0895413069F41B
S113024028B381E090E0AC0102C0440F551F6A95C9
S1130250E2F7BA01622B68BB089528B381E090E00D
S1130260AC0102C0440F551F6A95E2F7BA016095CC
S1130270622368BB0895413069F425B381E090E0BE
S1130280AC0102C0440F551F6A95E2F7BA01622B14
S113029065BB089525B381E090E0AC0102C0440F32
S11302A0551F6A95E2F7BA016095622365BB08950C
S11302B0413069F422B381E090E0AC0102C0440F04
S11302C0551F6A95E2F7BA01622B62BB089522B307
S11302D081E090E0AC0102C0440F551F6A95E2F73B
S11302E0BA016095622362BB08958434B1F1853408
S11302F038F48234E1F0833428F58134C1F50CC03C
S11303008236A9F0833618F4813689F505C0833620
S1130310C9F0843661F521C029B330E0C90102C0B7
S1130320959587956A95E2F7982F917020C026B32A
S113033030E0C90102C0959587956A95E2F7982F38
S1130340917015C023B330E0C90102C0959587951B
S11303506A95E2F7982F91700AC020B330E0C90182
S113036002C0959587956A95E2F7982F9170892F29
S11303700895843409F43DC0853440F48234F9F09E
S1130380833450F5813409F040C00CC08236B9F092
S1130390833618F48136C9F505C08336E9F084360E
S11303A0A1F527C02BB381E090E0AC0102C0440F5B
S11303B0551F6A95E2F7BA0162276BBB089528B30B
S11303C081E090E0AC0102C0440F551F6A95E2F74A
S11303D0BA01622768BB089525B381E090E0AC01BF
S11303E002C0440F551F6A95E2F7BA01622765BB44
S11303F0089522B381E090E0AC0102C0440F551F80
S11304006A95E2F7BA01622762BB08958434D9F091
S1130410853438F4823499F0833498F48134A1F427
S11304200CC0823661F0833618F4813669F405C055
S1130430833639F0843641F406C06ABB089567BB3D
S1130440089564BB089561BB08958434D9F085345C
S113045038F4823499F0833498F48134A1F40CC0D4
S1130460823661F0833618F4813669F405C0833628
S113047039F0843641F406C06BBB089568BB089517
S113048065BB089562BB08958434D9F0853438F48B
S1130490823499F0833498F48134A1F40CC0823608
S11304A061F0833618F4813669F405C0833639F077
S11304B0843641F406C089B3089586B3089583B39E
S11304C0089580B30895843409F1853438F482346E
S11304D0A9F08334B8F48134E1F40CC0823671F0AD
S11304E0833618F48136A9F405C0833659F084366E
S11304F081F40CC08BB380958BBB089588B3809531
S113050088BB089585B3809585BB089582B3809593
S113051082BB0895843409F480C0853448F482345D
S1130520C1F1833408F057C0813409F097C00FC07B
S1130530823679F1833620F4813609F08FC007C002
S1130540833609F448C0843609F088C066C0413057
S113055091F42BB381E090E0AC0102C0440F551F2D
S11305606A95E2F7BA01822F842B8BBB8AB360951C
S113057068236ABB08952BB381E090E0AC0102C00C
S1130580440F551F6A95E2F7BA01609562236BBB6D
S11305900895413091F428B381E090E0AC0102C0A9
S11305A0440F551F6A95E2F7BA01822F842B88BB4A
S11305B087B36095682367BB089528B381E090E012
S11305C0AC0102C0440F551F6A95E2F7BA01609569
S11305D0622368BB0895413091F425B381E090E033
S11305E0AC0102C0440F551F6A95E2F7BA01822F8D
S11305F0842B85BB84B36095682364BB089525B3BD
S113060081E090E0AC0102C0440F551F6A95E2F707
S1130610BA016095622365BB0895413091F422B319
S113062081E090E0AC0102C0440F551F6A95E2F7E7
S1130630BA01822F842B82BB81B36095682361BB8E
S1130640089522B381E090E0AC0102C0440F551F2D
S11306506A95E2F7BA016095622362BB08956F70F0
S1130660843451F1853438F48234C1F08334E8F4AD
S1130670813441F50CC0823689F0833618F4813612
S113068009F505C0833689F08436E1F415C08BB3CF
S1130690807F8BBB8BB3682B6BBB089588B3807F43
S11306A088BB88B3682B68BB089585B3807F85BBFE
S11306B085B3682B65BB089582B3807F82BB82B308
S11306C0682B62BB08956295607F843451F1853450
S11306D038F48234C1F08334E8F4813441F50CC039
S11306E0823689F0833618F4813609F505C08336DD
S11306F089F08436E1F415C08BB38F708BBB8BB358
S1130700682B6BBB089588B38F7088BB88B3682B44
S113071068BB089585B38F7085BB85B3682B65BBB3
S1130720089582B38F7082BB82B3682B62BB089535
S11307309B01AC0160E072E18AE790E00E94D90479
S1130740DA01C9014097A109B109B695A795979512
S1130750879580B911B8089584EA86BF06B607FE66
S1130760FDCF81B1887F8830E1F786B78F7D86BF62
S1130770089583B984E886BF06B607FEFDCF81B12C
S1130780887F8831E1F7089583B984E886BF06B687
S113079007FEFDCF81B1887F8832E1F7089584E9AF
S11307A086BF089582B9089584EC86BF06B607FE15
S11307B0FDCF81B1887F8036E1F784EC86BF06B631
S11307C007FEFDCF81B1887F8038E1F783B10895BA
S11307D082E460E041E00E94E4008FE99FE0019739
S11307E0F1F700C0000082E460E040E00E94E40011
S11307F08FE99FE00197F1F700C000000895CF93BF
S1130800C82F682F62956F7081E490E070E00E94B9
S11308102F0382E461E040E00E94E4000E94E803C8
S11308208FEC97E00197F1F700C0000081E490E0BD
S11308306C2F70E00E942F030E94E8038FEC97E076
S11308400197F1F700C00000CF91089581E460E0C2
S113085041E00E94530081E461E041E00E945300C2
S113086081E462E041E00E94530081E463E041E0FE
S11308700E94530082E460E041E00E94530082E45D
S113088061E041E00E94530082E00E94FF038FE197
S11308909EE40197F1F700C0000088E20E94FF0384
S11308A08FEC97E00197F1F700C0000081E00E940F
S11308B0FF038FE19EE40197F1F700C0000086E09A
S11308C00E94FF038FEC97E00197F1F700C000004E
S11308D08EE00E94FF038FEC97E00197F1F700C0D0
S11308E000000895CF93C82F682F62956F7081E43C
S11308F090E070E00E942F0382E461E041E00E94F6
S1130900E4000E94E8038FEC97E00197F1F700C040
S1130910000081E490E06C2F70E00E942F030E949D
S1130920E8038FEC97E00197F1F700C00000CF9146
S11309300895CF93DF93EC018881882331F02196C9
S11309400E94720489918823D9F78FEC97E001976C
S1130950F1F700C00000DF91CF91089581E00E947B
S1130960FF038FE19EE40197F1F700C000000895B2
S1130970282F2150223070F4662371F0613170F415
S1130980813019F4962F91580AC0823041F4962F81
S1130990915405C090E803C090E801C090E8892F05
S11309A00E94FF038FEC97E00197F1F700C000006D
S11309B00895A1E21A2EAA1BBB1BFD010DC0AA1F9C
S11309C0BB1FEE1FFF1FA217B307E407F50720F0B4
S11309D0A21BB30BE40BF50B661F771F881F991F2F
S11309E01A9469F760957095809590959B01AC0178
S10D09F0BD01CF010895F894FFCF74
S9030000FC
