S00E00005553415254312E7372656356
S11300000C942A000C9447000C9447000C9447006D
S11300100C9447000C9447000C9447000C94470040
S11300200C9447000C9447000C9447000C94470030
S11300300C9447000C9447000C9447000C94470020
S11300400C9447000C9447000C9447000C94470010
S11300500C94470011241FBECFE5D8E0DEBFCDBF0E
S113006010E0A0E6B0E0EAEBF1E002C005900D92EA
S1130070AA37B107D9F710E0AAE7B0E001C01D9292
S1130080AA37B107E1F70E9449000C94DB000C94F5
S1130090000060E875E280E090E00E9476008FEF57
S11300A092E5A7E081509040A040E1F700C0000035
S11300B080E690E00E94A1008FEF99E6A8E18150CC
S11300C09040A040E1F700C0000081E00E94990048
S11300D08FEF99E6A8E181509040A040E1F700C07D
S11300E000008CE690E00E94A100FFCFDC01CB0170
S11300F0880F991FAA1FBB1F880F991FAA1FBB1F18
S11301009C01AD01220F331F441F551F220F331FC3
S1130110441F551F60E072E18AE790E00E94B90035
S11301202150304030BD29B9539A549A86E880BD95
S113013008955D9BFECF8CB908955F9BFECF8CB173
S11301400895CF93DF93EC018881882379F0219679
S11301500E9499008FEF90E7A2E081509040A04068
S1130160E1F700C000008991882391F7DF91CF91D6
S11301700895A1E21A2EAA1BBB1BFD010DC0AA1FE4
S1130180BB1FEE1FFF1FA217B307E407F50720F0FC
S1130190A21BB30BE40BF50B661F771F881F991F77
S11301A01A9469F760957095809590959B01AC01C0
S10D01B0BD01CF010895F894FFCFBC
S11301BA454E47204942524148494D0069732074CB
S10D01CA6865206B696E6721000070
S9030000FC
